{
  "_format": "hh-sol-artifact-1",
  "contractName": "Voting",
  "sourceName": "contracts/Voting.sol",
  "abi": [
    {
      "anonymous": false,
      "inputs": [
        {
          "indexed": true,
          "internalType": "address",
          "name": "previousOwner",
          "type": "address"
        },
        {
          "indexed": true,
          "internalType": "address",
          "name": "newOwner",
          "type": "address"
        }
      ],
      "name": "OwnershipTransferred",
      "type": "event"
    },
    {
      "anonymous": false,
      "inputs": [
        {
          "indexed": false,
          "internalType": "uint256",
          "name": "proposalId",
          "type": "uint256"
        }
      ],
      "name": "ProposalRegistered",
      "type": "event"
    },
    {
      "anonymous": false,
      "inputs": [
        {
          "indexed": false,
          "internalType": "address",
          "name": "voter",
          "type": "address"
        },
        {
          "indexed": false,
          "internalType": "uint256",
          "name": "proposalId",
          "type": "uint256"
        }
      ],
      "name": "Voted",
      "type": "event"
    },
    {
      "anonymous": false,
      "inputs": [
        {
          "indexed": false,
          "internalType": "address",
          "name": "voterAddress",
          "type": "address"
        }
      ],
      "name": "VoterRegistered",
      "type": "event"
    },
    {
      "anonymous": false,
      "inputs": [
        {
          "indexed": false,
          "internalType": "enum Voting.WorkflowStatus",
          "name": "previousStatus",
          "type": "uint8"
        },
        {
          "indexed": false,
          "internalType": "enum Voting.WorkflowStatus",
          "name": "newStatus",
          "type": "uint8"
        }
      ],
      "name": "WorkflowStatusChange",
      "type": "event"
    },
    {
      "inputs": [
        {
          "internalType": "string",
          "name": "_desc",
          "type": "string"
        }
      ],
      "name": "addProposal",
      "outputs": [],
      "stateMutability": "nonpayable",
      "type": "function"
    },
    {
      "inputs": [
        {
          "internalType": "address",
          "name": "_addr",
          "type": "address"
        }
      ],
      "name": "addVoter",
      "outputs": [],
      "stateMutability": "nonpayable",
      "type": "function"
    },
    {
      "inputs": [],
      "name": "endProposalsRegistering",
      "outputs": [],
      "stateMutability": "nonpayable",
      "type": "function"
    },
    {
      "inputs": [],
      "name": "endVotingSession",
      "outputs": [],
      "stateMutability": "nonpayable",
      "type": "function"
    },
    {
      "inputs": [
        {
          "internalType": "uint256",
          "name": "_id",
          "type": "uint256"
        }
      ],
      "name": "getOneProposal",
      "outputs": [
        {
          "components": [
            {
              "internalType": "string",
              "name": "description",
              "type": "string"
            },
            {
              "internalType": "uint256",
              "name": "voteCount",
              "type": "uint256"
            }
          ],
          "internalType": "struct Voting.Proposal",
          "name": "",
          "type": "tuple"
        }
      ],
      "stateMutability": "view",
      "type": "function"
    },
    {
      "inputs": [
        {
          "internalType": "address",
          "name": "_addr",
          "type": "address"
        }
      ],
      "name": "getVoter",
      "outputs": [
        {
          "components": [
            {
              "internalType": "bool",
              "name": "isRegistered",
              "type": "bool"
            },
            {
              "internalType": "bool",
              "name": "hasVoted",
              "type": "bool"
            },
            {
              "internalType": "uint256",
              "name": "votedProposalId",
              "type": "uint256"
            }
          ],
          "internalType": "struct Voting.Voter",
          "name": "",
          "type": "tuple"
        }
      ],
      "stateMutability": "view",
      "type": "function"
    },
    {
      "inputs": [],
      "name": "owner",
      "outputs": [
        {
          "internalType": "address",
          "name": "",
          "type": "address"
        }
      ],
      "stateMutability": "view",
      "type": "function"
    },
    {
      "inputs": [],
      "name": "renounceOwnership",
      "outputs": [],
      "stateMutability": "nonpayable",
      "type": "function"
    },
    {
      "inputs": [
        {
          "internalType": "uint256",
          "name": "_id",
          "type": "uint256"
        }
      ],
      "name": "setVote",
      "outputs": [],
      "stateMutability": "nonpayable",
      "type": "function"
    },
    {
      "inputs": [],
      "name": "startProposalsRegistering",
      "outputs": [],
      "stateMutability": "nonpayable",
      "type": "function"
    },
    {
      "inputs": [],
      "name": "startVotersRegistering",
      "outputs": [],
      "stateMutability": "nonpayable",
      "type": "function"
    },
    {
      "inputs": [],
      "name": "startVotingSession",
      "outputs": [],
      "stateMutability": "nonpayable",
      "type": "function"
    },
    {
      "inputs": [],
      "name": "tallyVotes",
      "outputs": [],
      "stateMutability": "nonpayable",
      "type": "function"
    },
    {
      "inputs": [
        {
          "internalType": "address",
          "name": "newOwner",
          "type": "address"
        }
      ],
      "name": "transferOwnership",
      "outputs": [],
      "stateMutability": "nonpayable",
      "type": "function"
    },
    {
      "inputs": [],
      "name": "winningProposalID",
      "outputs": [
        {
          "internalType": "uint256",
          "name": "",
          "type": "uint256"
        }
      ],
      "stateMutability": "view",
      "type": "function"
    },
    {
      "inputs": [],
      "name": "workflowStatus",
      "outputs": [
        {
          "internalType": "enum Voting.WorkflowStatus",
          "name": "",
          "type": "uint8"
        }
      ],
      "stateMutability": "view",
      "type": "function"
    }
  ],
  "bytecode": "0x60806040523480156200001157600080fd5b5062000032620000266200003860201b60201c565b6200004060201b60201c565b62000104565b600033905090565b60008060009054906101000a900473ffffffffffffffffffffffffffffffffffffffff169050816000806101000a81548173ffffffffffffffffffffffffffffffffffffffff021916908373ffffffffffffffffffffffffffffffffffffffff1602179055508173ffffffffffffffffffffffffffffffffffffffff168173ffffffffffffffffffffffffffffffffffffffff167f8be0079c531659141344cd1fd0a4f28419497f9722a3daafe3b4186f6b6457e060405160405180910390a35050565b61258080620001146000396000f3fe608060405234801561001057600080fd5b50600436106101005760003560e01c8063a7bfab1611610097578063d4f50f9811610066578063d4f50f9814610203578063ee74c67814610233578063f2fde38b1461023d578063f4ab9adf1461025957610100565b8063a7bfab16146101c7578063bdc01431146101d1578063c7038a4e146101ef578063c88af42f146101f957610100565b8063715018a6116100d3578063715018a6146101515780638da5cb5b1461015b578063a1edffa214610179578063a2788cce1461019757610100565b80631964b44514610105578063230796ae1461010f5780632fdae3c51461012b578063378a217814610147575b600080fd5b61010d610275565b005b61012960048036038101906101249190611510565b61031f565b005b610145600480360381019061014091906115a2565b61061a565b005b61014f61089d565b005b610159610a0a565b005b610163610a1e565b6040516101709190611630565b60405180910390f35b610181610a47565b60405161018e91906116c2565b60405180910390f35b6101b160048036038101906101ac9190611510565b610a5a565b6040516101be91906117b9565b60405180910390f35b6101cf610bc1565b005b6101d9610ca7565b6040516101e691906117ea565b60405180910390f35b6101f7610cad565b005b610201610e28565b005b61021d60048036038101906102189190611831565b610f0d565b60405161022a91906118bb565b60405180910390f35b61023b611035565b005b61025760048036038101906102529190611831565b61111b565b005b610273600480360381019061026e9190611831565b61119e565b005b61027d611347565b6005808111156102905761028f61164b565b5b600260009054906101000a900460ff1660058111156102b2576102b161164b565b5b146102f2576040517f08c379a00000000000000000000000000000000000000000000000000000000081526004016102e990611933565b60405180910390fd5b6000600260006101000a81548160ff021916908360058111156103185761031761164b565b5b0217905550565b600460003373ffffffffffffffffffffffffffffffffffffffff1673ffffffffffffffffffffffffffffffffffffffff16815260200190815260200160002060000160009054906101000a900460ff166103ae576040517f08c379a00000000000000000000000000000000000000000000000000000000081526004016103a59061199f565b60405180910390fd5b600360058111156103c2576103c161164b565b5b600260009054906101000a900460ff1660058111156103e4576103e361164b565b5b14610424576040517f08c379a000000000000000000000000000000000000000000000000000000000815260040161041b90611a31565b60405180910390fd5b60011515600460003373ffffffffffffffffffffffffffffffffffffffff1673ffffffffffffffffffffffffffffffffffffffff16815260200190815260200160002060000160019054906101000a900460ff161515036104ba576040517f08c379a00000000000000000000000000000000000000000000000000000000081526004016104b190611a9d565b60405180910390fd5b6003805490508110610501576040517f08c379a00000000000000000000000000000000000000000000000000000000081526004016104f890611b09565b60405180910390fd5b80600460003373ffffffffffffffffffffffffffffffffffffffff1673ffffffffffffffffffffffffffffffffffffffff168152602001908152602001600020600101819055506001600460003373ffffffffffffffffffffffffffffffffffffffff1673ffffffffffffffffffffffffffffffffffffffff16815260200190815260200160002060000160016101000a81548160ff021916908315150217905550600381815481106105b7576105b6611b29565b5b906000526020600020906002020160010160008154809291906105d990611b87565b91905055507f4d99b957a2bc29a30ebd96a7be8e68fe50a3c701db28a91436490b7d53870ca4338260405161060f929190611bcf565b60405180910390a150565b600460003373ffffffffffffffffffffffffffffffffffffffff1673ffffffffffffffffffffffffffffffffffffffff16815260200190815260200160002060000160009054906101000a900460ff166106a9576040517f08c379a00000000000000000000000000000000000000000000000000000000081526004016106a09061199f565b60405180910390fd5b600160058111156106bd576106bc61164b565b5b600260009054906101000a900460ff1660058111156106df576106de61164b565b5b1461071f576040517f08c379a000000000000000000000000000000000000000000000000000000000815260040161071690611c44565b60405180910390fd5b60405160200161072e90611c8a565b604051602081830303815290604052805190602001208282604051602001610757929190611ce6565b60405160208183030381529060405280519060200120036107ad576040517f08c379a00000000000000000000000000000000000000000000000000000000081526004016107a490611d7c565b60405180910390fd5b6107b5611491565b82828080601f016020809104026020016040519081016040528093929190818152602001838380828437600081840152601f19601f820116905080830192505050505050508160000181905250600381908060018154018082558091505060019003906000526020600020906002020160009091909190915060008201518160000190816108439190611fd7565b506020820151816001015550507f92e393e9b54e2f801d3ea4beb0c5e71a21cc34a5d34b77d0fb8a3aa1650dc18f600160038054905061088391906120a9565b60405161089091906117ea565b60405180910390a1505050565b6108a5611347565b600460058111156108b9576108b861164b565b5b600260009054906101000a900460ff1660058111156108db576108da61164b565b5b1461091b576040517f08c379a00000000000000000000000000000000000000000000000000000000081526004016109129061214f565b60405180910390fd5b600080600090505b600380549050811015610999576003828154811061094457610943611b29565b5b9060005260206000209060020201600101546003828154811061096a57610969611b29565b5b9060005260206000209060020201600101541115610986578091505b808061099190611b87565b915050610923565b50806001819055506005600260006101000a81548160ff021916908360058111156109c7576109c661164b565b5b02179055507f0a97a4ee45751e2abf3e4fc8946939630b11b371ea8ae39ccdc3056e98f5cc3f600460056040516109ff92919061216f565b60405180910390a150565b610a12611347565b610a1c60006113c5565b565b60008060009054906101000a900473ffffffffffffffffffffffffffffffffffffffff16905090565b600260009054906101000a900460ff1681565b610a62611491565b600460003373ffffffffffffffffffffffffffffffffffffffff1673ffffffffffffffffffffffffffffffffffffffff16815260200190815260200160002060000160009054906101000a900460ff16610af1576040517f08c379a0000000000000000000000000000000000000000000000000000000008152600401610ae89061199f565b60405180910390fd5b60038281548110610b0557610b04611b29565b5b9060005260206000209060020201604051806040016040529081600082018054610b2e90611dfa565b80601f0160208091040260200160405190810160405280929190818152602001828054610b5a90611dfa565b8015610ba75780601f10610b7c57610100808354040283529160200191610ba7565b820191906000526020600020905b815481529060010190602001808311610b8a57829003601f168201915b505050505081526020016001820154815250509050919050565b610bc9611347565b60036005811115610bdd57610bdc61164b565b5b600260009054906101000a900460ff166005811115610bff57610bfe61164b565b5b14610c3f576040517f08c379a0000000000000000000000000000000000000000000000000000000008152600401610c3690611a31565b60405180910390fd5b6004600260006101000a81548160ff02191690836005811115610c6557610c6461164b565b5b02179055507f0a97a4ee45751e2abf3e4fc8946939630b11b371ea8ae39ccdc3056e98f5cc3f60036004604051610c9d92919061216f565b60405180910390a1565b60015481565b610cb5611347565b60006005811115610cc957610cc861164b565b5b600260009054906101000a900460ff166005811115610ceb57610cea61164b565b5b14610d2b576040517f08c379a0000000000000000000000000000000000000000000000000000000008152600401610d229061220a565b60405180910390fd5b6001600260006101000a81548160ff02191690836005811115610d5157610d5061164b565b5b0217905550610d5e611491565b6040518060400160405280600781526020017f47454e4553495300000000000000000000000000000000000000000000000000815250816000018190525060038190806001815401808255809150506001900390600052602060002090600202016000909190919091506000820151816000019081610ddd9190611fd7565b506020820151816001015550507f0a97a4ee45751e2abf3e4fc8946939630b11b371ea8ae39ccdc3056e98f5cc3f60006001604051610e1d92919061216f565b60405180910390a150565b610e30611347565b60016005811115610e4457610e4361164b565b5b600260009054906101000a900460ff166005811115610e6657610e6561164b565b5b14610ea6576040517f08c379a0000000000000000000000000000000000000000000000000000000008152600401610e9d9061229c565b60405180910390fd5b60028060006101000a81548160ff02191690836005811115610ecb57610eca61164b565b5b02179055507f0a97a4ee45751e2abf3e4fc8946939630b11b371ea8ae39ccdc3056e98f5cc3f60016002604051610f0392919061216f565b60405180910390a1565b610f156114ab565b600460003373ffffffffffffffffffffffffffffffffffffffff1673ffffffffffffffffffffffffffffffffffffffff16815260200190815260200160002060000160009054906101000a900460ff16610fa4576040517f08c379a0000000000000000000000000000000000000000000000000000000008152600401610f9b9061199f565b60405180910390fd5b600460008373ffffffffffffffffffffffffffffffffffffffff1673ffffffffffffffffffffffffffffffffffffffff1681526020019081526020016000206040518060600160405290816000820160009054906101000a900460ff161515151581526020016000820160019054906101000a900460ff161515151581526020016001820154815250509050919050565b61103d611347565b600260058111156110515761105061164b565b5b600260009054906101000a900460ff1660058111156110735761107261164b565b5b146110b3576040517f08c379a00000000000000000000000000000000000000000000000000000000081526004016110aa9061232e565b60405180910390fd5b6003600260006101000a81548160ff021916908360058111156110d9576110d861164b565b5b02179055507f0a97a4ee45751e2abf3e4fc8946939630b11b371ea8ae39ccdc3056e98f5cc3f6002600360405161111192919061216f565b60405180910390a1565b611123611347565b600073ffffffffffffffffffffffffffffffffffffffff168173ffffffffffffffffffffffffffffffffffffffff1603611192576040517f08c379a0000000000000000000000000000000000000000000000000000000008152600401611189906123c0565b60405180910390fd5b61119b816113c5565b50565b6111a6611347565b600060058111156111ba576111b961164b565b5b600260009054906101000a900460ff1660058111156111dc576111db61164b565b5b1461121c576040517f08c379a000000000000000000000000000000000000000000000000000000000815260040161121390612452565b60405180910390fd5b60011515600460008373ffffffffffffffffffffffffffffffffffffffff1673ffffffffffffffffffffffffffffffffffffffff16815260200190815260200160002060000160009054906101000a900460ff161515036112b2576040517f08c379a00000000000000000000000000000000000000000000000000000000081526004016112a9906124be565b60405180910390fd5b6001600460008373ffffffffffffffffffffffffffffffffffffffff1673ffffffffffffffffffffffffffffffffffffffff16815260200190815260200160002060000160006101000a81548160ff0219169083151502179055507fb6be2187d059cc2a55fe29e0e503b566e1e0f8c8780096e185429350acffd3dd8160405161133c9190611630565b60405180910390a150565b61134f611489565b73ffffffffffffffffffffffffffffffffffffffff1661136d610a1e565b73ffffffffffffffffffffffffffffffffffffffff16146113c3576040517f08c379a00000000000000000000000000000000000000000000000000000000081526004016113ba9061252a565b60405180910390fd5b565b60008060009054906101000a900473ffffffffffffffffffffffffffffffffffffffff169050816000806101000a81548173ffffffffffffffffffffffffffffffffffffffff021916908373ffffffffffffffffffffffffffffffffffffffff1602179055508173ffffffffffffffffffffffffffffffffffffffff168173ffffffffffffffffffffffffffffffffffffffff167f8be0079c531659141344cd1fd0a4f28419497f9722a3daafe3b4186f6b6457e060405160405180910390a35050565b600033905090565b604051806040016040528060608152602001600081525090565b6040518060600160405280600015158152602001600015158152602001600081525090565b600080fd5b600080fd5b6000819050919050565b6114ed816114da565b81146114f857600080fd5b50565b60008135905061150a816114e4565b92915050565b600060208284031215611526576115256114d0565b5b6000611534848285016114fb565b91505092915050565b600080fd5b600080fd5b600080fd5b60008083601f8401126115625761156161153d565b5b8235905067ffffffffffffffff81111561157f5761157e611542565b5b60208301915083600182028301111561159b5761159a611547565b5b9250929050565b600080602083850312156115b9576115b86114d0565b5b600083013567ffffffffffffffff8111156115d7576115d66114d5565b5b6115e38582860161154c565b92509250509250929050565b600073ffffffffffffffffffffffffffffffffffffffff82169050919050565b600061161a826115ef565b9050919050565b61162a8161160f565b82525050565b60006020820190506116456000830184611621565b92915050565b7f4e487b7100000000000000000000000000000000000000000000000000000000600052602160045260246000fd5b6006811061168b5761168a61164b565b5b50565b600081905061169c8261167a565b919050565b60006116ac8261168e565b9050919050565b6116bc816116a1565b82525050565b60006020820190506116d760008301846116b3565b92915050565b600081519050919050565b600082825260208201905092915050565b60005b838110156117175780820151818401526020810190506116fc565b60008484015250505050565b6000601f19601f8301169050919050565b600061173f826116dd565b61174981856116e8565b93506117598185602086016116f9565b61176281611723565b840191505092915050565b611776816114da565b82525050565b600060408301600083015184820360008601526117998282611734565b91505060208301516117ae602086018261176d565b508091505092915050565b600060208201905081810360008301526117d3818461177c565b905092915050565b6117e4816114da565b82525050565b60006020820190506117ff60008301846117db565b92915050565b61180e8161160f565b811461181957600080fd5b50565b60008135905061182b81611805565b92915050565b600060208284031215611847576118466114d0565b5b60006118558482850161181c565b91505092915050565b60008115159050919050565b6118738161185e565b82525050565b60608201600082015161188f600085018261186a565b5060208201516118a2602085018261186a565b5060408201516118b5604085018261176d565b50505050565b60006060820190506118d06000830184611879565b92915050565b600082825260208201905092915050565b7f566f74696e6720617265206e6f742066696e6973686564000000000000000000600082015250565b600061191d6017836118d6565b9150611928826118e7565b602082019050919050565b6000602082019050818103600083015261194c81611910565b9050919050565b7f596f75277265206e6f74206120766f7465720000000000000000000000000000600082015250565b60006119896012836118d6565b915061199482611953565b602082019050919050565b600060208201905081810360008301526119b88161197c565b9050919050565b7f566f74696e672073657373696f6e20686176656e74207374617274656420796560008201527f7400000000000000000000000000000000000000000000000000000000000000602082015250565b6000611a1b6021836118d6565b9150611a26826119bf565b604082019050919050565b60006020820190508181036000830152611a4a81611a0e565b9050919050565b7f596f75206861766520616c726561647920766f74656400000000000000000000600082015250565b6000611a876016836118d6565b9150611a9282611a51565b602082019050919050565b60006020820190508181036000830152611ab681611a7a565b9050919050565b7f50726f706f73616c206e6f7420666f756e640000000000000000000000000000600082015250565b6000611af36012836118d6565b9150611afe82611abd565b602082019050919050565b60006020820190508181036000830152611b2281611ae6565b9050919050565b7f4e487b7100000000000000000000000000000000000000000000000000000000600052603260045260246000fd5b7f4e487b7100000000000000000000000000000000000000000000000000000000600052601160045260246000fd5b6000611b92826114da565b91507fffffffffffffffffffffffffffffffffffffffffffffffffffffffffffffffff8203611bc457611bc3611b58565b5b600182019050919050565b6000604082019050611be46000830185611621565b611bf160208301846117db565b9392505050565b7f50726f706f73616c7320617265206e6f7420616c6c6f77656420796574000000600082015250565b6000611c2e601d836118d6565b9150611c3982611bf8565b602082019050919050565b60006020820190508181036000830152611c5d81611c21565b9050919050565b50565b6000611c746000836118d6565b9150611c7f82611c64565b600082019050919050565b60006020820190508181036000830152611ca381611c67565b9050919050565b82818337600083830152505050565b6000611cc583856118d6565b9350611cd2838584611caa565b611cdb83611723565b840190509392505050565b60006020820190508181036000830152611d01818486611cb9565b90509392505050565b7f566f7573206e6520706f7576657a20706173206e65207269656e2070726f706f60008201527f7365720000000000000000000000000000000000000000000000000000000000602082015250565b6000611d666023836118d6565b9150611d7182611d0a565b604082019050919050565b60006020820190508181036000830152611d9581611d59565b9050919050565b7f4e487b7100000000000000000000000000000000000000000000000000000000600052604160045260246000fd5b7f4e487b7100000000000000000000000000000000000000000000000000000000600052602260045260246000fd5b60006002820490506001821680611e1257607f821691505b602082108103611e2557611e24611dcb565b5b50919050565b60008190508160005260206000209050919050565b60006020601f8301049050919050565b600082821b905092915050565b600060088302611e8d7fffffffffffffffffffffffffffffffffffffffffffffffffffffffffffffffff82611e50565b611e978683611e50565b95508019841693508086168417925050509392505050565b6000819050919050565b6000611ed4611ecf611eca846114da565b611eaf565b6114da565b9050919050565b6000819050919050565b611eee83611eb9565b611f02611efa82611edb565b848454611e5d565b825550505050565b600090565b611f17611f0a565b611f22818484611ee5565b505050565b5b81811015611f4657611f3b600082611f0f565b600181019050611f28565b5050565b601f821115611f8b57611f5c81611e2b565b611f6584611e40565b81016020851015611f74578190505b611f88611f8085611e40565b830182611f27565b50505b505050565b600082821c905092915050565b6000611fae60001984600802611f90565b1980831691505092915050565b6000611fc78383611f9d565b9150826002028217905092915050565b611fe0826116dd565b67ffffffffffffffff811115611ff957611ff8611d9c565b5b6120038254611dfa565b61200e828285611f4a565b600060209050601f831160018114612041576000841561202f578287015190505b6120398582611fbb565b8655506120a1565b601f19841661204f86611e2b565b60005b8281101561207757848901518255600182019150602085019450602081019050612052565b868310156120945784890151612090601f891682611f9d565b8355505b6001600288020188555050505b505050505050565b60006120b4826114da565b91506120bf836114da565b92508282039050818111156120d7576120d6611b58565b5b92915050565b7f43757272656e7420737461747573206973206e6f7420766f74696e672073657360008201527f73696f6e20656e64656400000000000000000000000000000000000000000000602082015250565b6000612139602a836118d6565b9150612144826120dd565b604082019050919050565b600060208201905081810360008301526121688161212c565b9050919050565b600060408201905061218460008301856116b3565b61219160208301846116b3565b9392505050565b7f5265676973746572696e672070726f706f73616c732063616e7420626520737460008201527f6172746564206e6f770000000000000000000000000000000000000000000000602082015250565b60006121f46029836118d6565b91506121ff82612198565b604082019050919050565b60006020820190508181036000830152612223816121e7565b9050919050565b7f5265676973746572696e672070726f706f73616c7320686176656e742073746160008201527f7274656420796574000000000000000000000000000000000000000000000000602082015250565b60006122866028836118d6565b91506122918261222a565b604082019050919050565b600060208201905081810360008301526122b581612279565b9050919050565b7f5265676973746572696e672070726f706f73616c73207068617365206973206e60008201527f6f742066696e6973686564000000000000000000000000000000000000000000602082015250565b6000612318602b836118d6565b9150612323826122bc565b604082019050919050565b600060208201905081810360008301526123478161230b565b9050919050565b7f4f776e61626c653a206e6577206f776e657220697320746865207a65726f206160008201527f6464726573730000000000000000000000000000000000000000000000000000602082015250565b60006123aa6026836118d6565b91506123b58261234e565b604082019050919050565b600060208201905081810360008301526123d98161239d565b9050919050565b7f566f7465727320726567697374726174696f6e206973206e6f74206f70656e2060008201527f7965740000000000000000000000000000000000000000000000000000000000602082015250565b600061243c6023836118d6565b9150612447826123e0565b604082019050919050565b6000602082019050818103600083015261246b8161242f565b9050919050565b7f416c726561647920726567697374657265640000000000000000000000000000600082015250565b60006124a86012836118d6565b91506124b382612472565b602082019050919050565b600060208201905081810360008301526124d78161249b565b9050919050565b7f4f776e61626c653a2063616c6c6572206973206e6f7420746865206f776e6572600082015250565b60006125146020836118d6565b915061251f826124de565b602082019050919050565b6000602082019050818103600083015261254381612507565b905091905056fea264697066735822122018ecc08be9d31cb2770826df103edfc10f0dd59ba876c666bcd9fd1c9103723164736f6c63430008110033",
  "linkReferences": {},
  "deployedLinkReferences": {}
}